:020000040800F2
:100000000050002021020008270200082B020008EF
:100010009D020008A1020008E9020008000000009B
:100020000000000000000000000000003103000894
:100030003503000800000000390300083D030008F4
:100040004D0300084D0300084D0300084D03000850
:100050004D0300084D0300084D0300084D03000840
:100060004D0300084D0300084D0300084D03000830
:100070004D0300084D0300084D0300084D03000820
:100080004D0300084D0300084D0300084D03000810
:100090004D0300084D0300084D0300084D03000800
:1000A0004D0300084D0300084D0300084D030008F0
:1000B0004D0300084D0300084D0300084D030008E0
:1000C0004D0300084D0300084D0300084D030008D0
:1000D0004D0300084D0300084D0300084D030008C0
:1000E0004D0300084D0300084D0300080000000008
:1000F0000000000000000000000000000000000000
:1001000000000000000000005FF808F100B583B0B7
:1001100000F0AAF9304B314A1360314A1360314B79
:10012000314A32498B4204D21168196004330432D7
:10013000F7E72A4B1A682E4B9A4200D0FEE7284B6D
:100140001A682C4B9A42F9D1234B2B4A13602B4A45
:1001500013602B4B02E000221A600433294A9342B9
:10016000F9D3254B1B6813B9244B1B6803B1FEE779
:1001700000F086F9694601A800F022F9224C234BD1
:10018000E41AA4100025AC4214DC214C214BE41AE3
:10019000A4100025AC4213DC0099019801F004F88A
:1001A00005461D4C1D4BE41AA410002C0EDC2846FD
:1001B00000F0E2F8154B53F8253098470135E2E797
:1001C000144B53F8253098470135E3E7013C134BB6
:1001D00053F824309847E8E7BABADECA0000002096
:1001E0008800002000000020541D00088C00002022
:1001F00078563412325476988C000020281500204E
:100200008C0000202C1500207803000878030008DB
:1002100078030008780300087803000878030008D2
:1002200008B5FFF773FF00BEFEE71EF0040F0CBF1A
:10023000EFF30880EFF309807146414A10472DE93A
:10024000F04182B004468846124B5E6B9F6B9D6AFC
:100250001B6B13F0020F03D00E4BDB6A002B0CDB81
:100260000D4800F0B5F8CDF800803B4632462946EF
:10027000204600F009F900BEFEE74BF6AB6100F046
:100280007DF90028ECD0034B4FF00042DA6202B057
:10029000BDE8F08100ED00E0A41B000800BEFEE711
:1002A0001EF0040F0CBFEFF30880EFF309807146D6
:1002B000244A10472DE9F04182B004468846084B95
:1002C0005E6B9F6B9D6A074800F082F8CDF8008056
:1002D0003B4632462946204600F0D6F800BEFEE7EF
:1002E00000ED00E0B41B00081EF0040F0CBFEFF39C
:1002F0000880EFF309807146134A10472DE9F04159
:1003000082B004468846084B5E6B9F6B9D6A074827
:1003100000F05EF8CDF800803B4632462946204684
:1003200000F0B2F800BEFEE700ED00E0C01B0008E0
:1003300000BEFEE700BEFEE700BEFEE7704700001D
:100340003F020008B5020008FD02000800BEFEE7FB
:10035000541D0008000000208C000020541D0008DF
:1003600000000000000000008C0000202C15002080
:08037000000000000000000085
:10037800FEE7000008B503460C4A12685AB10B4A5A
:100388001068033323F003030344094A934206D851
:10039800064A136008BD054A06491160EFE700F0F8
:1003A80005FF0C2303604FF0FF30F3E790000020B7
:1003B800004C00202C15002001230360014B0B602A
:1003C800704700BF040000200FB400B583B004AB31
:1003D80053F8042B01938021064800F05DFF0028A4
:1003E80003DD0146034800F037F803B05DF804EB7D
:1003F80004B07047980000202DE9F04385B004460A
:100408000F4643560BB10E461EE0042528462146EA
:10041800ABBE0446384605B0BDE8F08314F9011BAD
:1004280004AA1A4402F8101C0133AB42F6D304AAFA
:100438001344002203F8102C4FF00408E946404604
:100448004946ABBE8046761B002EE3D03546102EBB
:1004580028BF10250023E8E708B5FFF7CDFF08BD42
:1004680008B500F0FDF8024A024B9A6008BD00BFCB
:100478000000000800ED00E008B500F019F908BD1B
:10048800F8B504460D4617461E462748FFF79CFF59
:1004980021682648FFF798FF61682548FFF794FF11
:1004A800A1682448FFF790FFE1682348FFF78CFF15
:1004B80021692248FFF788FF61692148FFF784FF17
:1004C800A1692048FFF780FFE1691F48FFF77CFF1B
:1004D8001E48FFF779FF29461D48FFF775FF1D4C99
:1004E800E16A1D48FFF770FF216B1C48FFF76CFF9E
:1004F800E16B1B48FFF768FF15F0800F0AD115F470
:10050800004F0CD11748FFF75FFF06991648FFF711
:100518005BFFF8BD39461548FFF756FFEFE7314650
:100528001348FFF751FFEDE7881A0008981A0008EA
:10053800A81A0008B81A0008C81A0008D81A00082B
:10054800E81A0008F81A0008081B0008181B000819
:10055800241B000800ED00E0341B0008441B0008C1
:10056800541B0008841B00088C1B0008641B00082F
:10057800741B000883691A888A4201D000207047DA
:100588000268033A012A03D80233836101207047C5
:100598000020704782B00023019300932C4A13680F
:1005A80043F4803313602A4B1B6803F40033009331
:1005B800019B01330193009B1BB9019BB3F5A06F0D
:1005C800F1D1234B1B6813F4003F06D0012300939D
:1005D800009B012B04D002B0704700230093F7E77B
:1005E8001C4B1A6842F010021A601A6822F00302C3
:1005F8001A601A6842F002021A60A3F580535A681A
:100608005A605A685A605A6842F480625A605A6856
:1006180022F47C125A605A6842F4E8125A601A6846
:1006280042F080721A600A4B1B6813F0007FFAD000
:10063800074B5A6822F003025A605A6842F00202D5
:100648005A60034B5B6803F00C03082BF9D1C2E72F
:10065800001002400020024008B5FFF79BFF08BDCC
:1006680008B5104B1A6842F001021A6059680E4A20
:100678000A405A601A6822F0847222F480321A60A2
:100688001A6822F480221A605A6822F4FE025A601C
:100698004FF41F029A60FFF7DFFF044B4FF0006230
:1006A8009A6008BD001002400000FFF800ED00E06D
:1006B8001F4B5B6803F00C03042B15D0082B17D0D5
:1006C8001BB11C4B1C4A1A6002E01A4B1A4A1A60EA
:1006D800174B5B68C3F30313184AD35CDAB21549A6
:1006E8000B68D3400B607047124B134A1A60EFE750
:1006F8000F4A53685268C3F38343023312F4803FAE
:100708000AD00B4A526812F4003F0BD00C4A02FB85
:1007180003F3084A1360DBE7094A02FB03F3054ABF
:100728001360D5E7044A02FB03F3024A1360CFE7DC
:10073800001002401C00002000127A000C0000206B
:1007480000093D0008B500F0B5FC0E21022000F0BC
:10075800BBFC0221084600F0B7FC0421002000F091
:10076800B3FC09221146002000F030FC04220A21C3
:10077800002000F02BFC00F0CDFC00F021FA02492B
:10078800024800F049FA08BDA01C0008AC1C00088B
:1007980008B500F500339B02044A1360800200F19B
:1007A80000604368024A1360984708BD08ED00E0FE
:1007B8001C0100200246A0F13003D8B2092802D952
:1007C800A2F13700C0B270472DE9F04706464078DD
:1007D800FFF7F0FF0746B078FFF7ECFF40EA07178E
:1007E800FFB2F078FFF7E6FF04463079FFF7E2FF43
:1007F80005467079FFF7DEFF8046B079FFF7DAFF2C
:10080800284A538840EA034040EA081040EA052095
:1008180040EA04301060002527E04FEA850A0AF113
:100828000903F05CFFF7C6FF80460AF10A03F05C93
:10083800FFF7C0FF81460AF10B03F05CFFF7BAFF30
:1008480004460AF10C0A16F80A00FFF7B3FF24035E
:1008580044EA002000B240EA090000B240EA081069
:10086800114B23F815000135EDB24FEA5708A8459A
:10087800D3D80C4C42460C49206800F04DFB414649
:10088800206800F07DFB02884FF6FF739A42F0D093
:1008980042884FF6FF739A42EBD0C2899A42E8D059
:1008A800BDE8F087200000203001002001E0013180
:1008B80089B2435C3A2BFAD1013188B27047000003
:1008C80038B51EE01A4A1388E05C1A4948550135C4
:1008D800EDB201331380164B198863185B783A2BF5
:1008E80023D05D2B08D0635C2B2BEBD12046FFF780
:1008F800DDFF0F4B1880E5E7002015E001330C4AB7
:1009080013800B4B1B88C25C5D2A09D03A2AF5D1AB
:10091800C21812F8012C2F2AF0D804460025DAE76D
:10092800034B00221A80012038BD0020FCE700BFDD
:1009380018010020580100202DE9F041A0B08046A0
:100948000F46164607AC324D0FCD0FC40FCD0FC45E
:100958000FCD0FC495E80F0084E80F002422002172
:1009680017A800F034FC02AC2A4D0FCD0FC42B6839
:1009780024F8023B1B0C23702F23ADF8043000230E
:100988000093092F03D9632F0BD9562400E057246D
:10099800092E08D9632E37D9FF2E06D00334E4B2C6
:1009A80003E05824F4E70134E4B21B4D42462946DB
:1009B800684600F015FC694607A800F031FC01A95B
:1009C80007A800F02DFC3A462946684600F008FCC6
:1009D800694607A800F024FC01A907A800F020FC3C
:1009E80032462946684600F0FBFB694607A800F036
:1009F80017FC02A907A800F013FC07A9204600F07D
:100A080091F920B0BDE8F0810234E4B2CDE700BF2F
:100A1800D01B0008B81C0008B41C000808B50D4B12
:100A28001B78AA2B02D0BB2B0AD008BD00F0F2F924
:100A3800BB21012000F026FA2520FFF7A9FEF4E7E4
:100A480000F0E8F9AA21012000F01CFA0A20FFF7BB
:100A58009FFEEAE72C01002038B50546002402E095
:100A68000A48FFF7B1FE012C0ED02846FFF728FFF1
:100A780004460128F7D0054B1B7A302BF0D0312BD8
:100A8800F1D1FFF7CBFFEEE738BD00BF58010020DA
:100A980070B59CB0314E17AC06F164030FCB84E8F7
:100AA8000F000025ADF86C50532206F1780101A81B
:100AB80000F082FBADF857508DF8595000F0AAF9B4
:100AC800012000F071FA264B1870204600F0E4F877
:100AD80001A9542000F026F990F82530792B07D089
:100AE8001F4B1B78AA2B31D0BB2B33D01CB070BD49
:100AF80005461B4B1B78AA2B03D0BB2B06D0012421
:100B080014E03F21252000F0FBF9F8E724210A2012
:100B180000F0F6F9F3E7642221460120FFF70CFF05
:100B280005462846FFF798FF0134E4B217A800F0FD
:100B3800B3F80B4B1B78AA2BEDD0BB2BF1D1642259
:100B480021460020FFF7F8FE0546EAE70A20FFF7EE
:100B58001FFECBE72520FFF71BFEC7E7D01B0008C9
:100B68002C01002030B583B0054600248DF80740DD
:100B78000AE029460DF1070000F0FEFA9DF807206B
:100B88000E4B1A550134A4B29DF80730FF2BF0D153
:100B9800002301E001339BB21946084AD25CFF2AC0
:100BA80008D04F2AF6D10131044A525C4B2AF1D1C0
:100BB800012000E0002003B030BD00BF8C01002000
:100BC80010B586B0124B93E803000490ADF81410EA
:100BD800090C8DF816100F4B6C460FCB07C42380F9
:100BE800002005E004A800F0B9FA6420FFF7BAFF76
:100BF8000128F7D1002006E0684600F0AFFA4FF46C
:100C0800FA60FFF7AFFF0128F6D106B010BD00BFAC
:100C1800F01C0008F81C000870B588B006460D46A0
:100C28001A4B04AC0FCB07C423802223ADF80C3039
:100C38002C23ADF80830164B1B68ADF804301B0C9C
:100C48008DF8063000201DE004A800F087FA03A8FC
:100C580000F084FA304600F081FA03A800F07EFA2A
:100C680002A800F07BFA03A800F078FA284600F002
:100C780075FA03A800F072FA01A800F06FFA0548A7
:100C8800FFF770FF0128DFD108B070BDE01C000835
:100C9800F41C0008A086010070B58AB0064605ACB1
:100CA8001C4D0FCD0FC42B6824F8023B1B0C23707E
:100CB800194B1B68ADF810301B0C8DF8123022232D
:100CC800ADF80C302C23ADF80830144B1B68ADF888
:100CD80004301B0C8DF80630002017E005A800F042
:100CE8003DFA03A800F03AFA304600F037FA03A8B4
:100CF80000F034FA02A800F031FA04A800F02EFA45
:100D080001A800F02BFA0648FFF72CFF0128E5D1CF
:100D18000AB070BD081D00081C1D0008F41C00085E
:100D2800801A0600F0B589B007460D461C4B03AE85
:100D380093E8070086E80700002406940794194BF7
:100D48001B68ADF808301B0C8DF80A303A46164976
:100D5800684600F045FA6946304600F061FA02A993
:100D6800304600F05DFA02A9284600F059FA2046FC
:100D780006E003A800F0F2F941F28830FFF7F2FE2E
:100D88000128F6D1002005E0284600F0E7F90748D9
:100D9800FFF7E8FE0128F7D1054809B0F0BD00BF0C
:100DA800CC1C0008F41C0008B41C0008801A0600BB
:100DB8008C010020154BDB6813F0010FFAD1134B9F
:100DC8001B6913F0800F05D0104B114A5A6002F1CD
:100DD80088325A600D4B1A6942F002021A61800289
:100DE80000F1006058611A6942F040021A61074B2D
:100DF800DB6813F0010FFAD1044BDA6842F02002E5
:100E0800DA601A6922F002021A6170470020024073
:100E180023016745194BDB6813F0010FFAD1174B13
:100E28001B6913F0800F05D0144B154A5A6002F164
:100E380088325A60114B1B6913F4007F05D10F4BA0
:100E48000F4A9A6002F188329A600C4B1A6942F094
:100E580020021A611A6942F040021A61074BDB68E6
:100E680013F0010FFAD1054BDA6842F02002DA607C
:100E78001A6922F020021A61704700BF0020024060
:100E880023016745022836D81B4BDB6813F0010F96
:100E9800FAD1194B1B6913F0800F05D0164B174A6E
:100EA8005A6002F188325A60134B1B6913F4007FB1
:100EB80005D1114B114A9A6002F188329A600E4AA4
:100EC800136943F010031361431EDBB25B0003F1A7
:100ED8000053A3F2FC7389B21980074BDB6813F047
:100EE800010FFAD1044BDA6842F02002DA601A697D
:100EF80022F010021A617047002002402301674562
:100F080038B504460D4604E02046FFF753FF013488
:100F1800E4B2AC42F8D938BD30B4174BDB6813F0F3
:100F2800010FFAD1144B1B6913F0800F05D0124B37
:100F3800124C5C6004F188345C60002418E00E4DAB
:100F48002B6943F001032B6131F8143020F8023B80
:100F5800094BDB6813F0010FFAD1074BDD6845F048
:100F68002005DD601D6925F001051D610134E4B22D
:100F78009442E4D330BC7047002002402301674507
:100F880000238B420CD210B430F81340054A22F8E3
:100F980013400133DBB28B42F6D3024810BC7047D2
:100FA8000048704714150020012803D0022806D0F5
:100FB80000207047044BD869C0F387207047024B64
:100FC800D869C0F3874070470020024010B4012858
:100FD80024D018B1022841D010BC7047072910D975
:100FE8000F29F9D8A1F10804E4B2A4000F23A34003
:100FF8002A48016821EA030302FA04F1194301604F
:10100800EAE789000F2303FA01F0254C236823EA55
:10101800000302FA01F119432160DDE7072910D91D
:101028000F29D9D8A1F10800C0B280000F2383404E
:101038001C4C216821EA030302FA00F119432160DC
:10104800CAE789000F2303FA01F0174C236823EA43
:10105800000302FA01F119432160BDE7072910D9FD
:101068000F29B9D8A1F10803DBB29B000F209840E3
:101078000E4C216821EA000002FA03F101432160C5
:10108800AAE789000F2303FA01F0094C236823EA31
:10109800000302FA01F1194321609DE704080140A9
:1010A80000080140040C0140000C014004100140FC
:1010B80000100140034B81221A60043300221A6099
:1010C800704700BF001002401F291CD801280BD010
:1010D80010B1022810D07047012303FA01F10A4A1F
:1010E80013680B4313607047012303FA01F1074AA1
:1010F80013680B4313607047012303FA01F1044A94
:1011080013680B4313607047141002401C10024010
:10111800181002400A4B45229A60DA6842F0080229
:10112800DA60DA6842F00402DA60DA6822F480628F
:10113800DA60DA6842F40052DA6000221A60704716
:10114800003801400278044B5A60034B1B6813F0C7
:10115800400FFAD0704700BF0038014038B5054647
:10116800002403E0FFF7EEFF0134E4B228192B5DF9
:10117800002BF7D138BD00000023084A126812F08E
:10118800200F04D101338B42F7D1FF2202708B422A
:1011980002D0024B5B680370704700BF0038014003
:1011A80008B5FFF7CFFAFFF773FC08BD014B1868C5
:1011B800704700BF2400002010B5431E0A44914226
:1011C80000D110BD11F8014B03F8014FF7E70346B2
:1011D8000244934200D1704703F8011BF9E700006D
:1011E8000EB46FF0004100B59CB01DAB02900690A4
:1011F800079104910848094953F8042B05910068A0
:1012080002A9019300F0B0F80022029B1A701CB0EA
:101218005DF804EB03B07047240000200802FFFFCC
:10122800034610B51A785C1C3AB9013B11F8012B3A
:1012380003F8012F002AF9D110BD2346F2E730B593
:10124800141E05469BB0184605DA8B234FF0FF3075
:101258002B601BB030BD4FF40273ADF80C300CBFDF
:10126800234604F1FF33029305934FF6FF73009171
:101278000491ADF80E3002461E9B6946284600F0E0
:1012880073F8431CBCBF8B232B60002CE1D00022D9
:10129800009B1A70DDE7000007B5009313460A4665
:1012A800014603480068FFF7CAFF03B05DF804FB76
:1012B800240000202DE9F0478E6882469E420C46A5
:1012C8009046994637D88A8912F4906F31D0022314
:1012D800256809696F1A656905EB450595FBF3F5FE
:1012E80009F101033B449D4238BF1D46530530D5E3
:1012F800294600F02BFB064650B90C234FF0FF306F
:10130800CAF80030A38943F04003A381BDE8F08701
:101318003A462169FFF750FFA38923F4906343F00D
:101328008003A38126613E4426604E466561ED1B1D
:10133800A5604E4500D94E4632464146206800F029
:101348009FFAA36800209B1BA36023681E442660A5
:10135800DCE72A4600F054FB06460028E2D1216962
:10136800504600F0A7FAC8E72DE9F04F9DB0039367
:101378008B8980461D060C4616460FD50B696BB93E
:10138800402100F0E3FA2060206128B90C23C8F856
:1013980000304FF0FF30C7E040236361002309931A
:1013A80020238DF8293030234FF0010B8DF82A3097
:1013B80037463D4615F8013B0BB1252B3ED1B7EB1F
:1013C800060A0BD05346324621464046FFF772FFC5
:1013D800013000F0A480099B534409933B78002B0B
:1013E80000F09D8000234FF0FF32CDE905230493E0
:1013F80007938DF853301A932F46052217F8011BCF
:101408004F4800F02FFA049BD0B9D90644BF2022D8
:101418008DF853201A0744BF2B228DF853202A78C1
:101428002A2A15D02F4600200A25079A394611F88E
:10143800013B303B092B4DD9B8B10FE02F46B8E737
:101448003F4A3D46801A0BFA00F018430490D3E750
:10145800039A111D12680391002A01DB079204E028
:10146800524243F00203079204933B782E2B0CD18F
:101478007B782A2B33D1039B02371A1D1B680392F2
:10148800002BB8BF4FF0FF3305932E4D0322397858
:10149800284600F0E7F938B14023401B03FA00F072
:1014A800049B0137034304933978062226487E1C9F
:1014B8008DF8281000F0D6F9002838D0234B13BB3C
:1014C800039B073323F0070308330393099B4B441B
:1014D80009936DE705FB023201200F46A6E70023BA
:1014E8000A25194601370593384610F8012B303A7A
:1014F800092A03D9002BC8D00591C6E705FB0121AD
:1015080001230746F0E703AB00932246104B04A9DA
:101518004046AFF30080B0F1FF3F8146D6D1A389A2
:101528005B063FF536AF09981DB0BDE8F08F03ABF9
:1015380000932246064B04A9404600F081F8EAE7EA
:10154800201D0008261D00082A1D000800000000B4
:10155800BD1200082DE9F04791461F468A680B69BD
:1015680006469342B8BF1346C9F8003091F84320A5
:101578000C46DDF8208012B10133C9F80030236829
:10158800990642BFD9F800300233C9F800302568FF
:1015980015F0060507D104F1190AE368D9F8002007
:1015A8009B1AAB4229DC94F843302268003318BFF9
:1015B800012392062ED404F1430239463046C0472F
:1015C800013021D02368E56803F00603042B18BF17
:1015D8000025D9F800204FF0000908BFAD1AA3680C
:1015E800226908BF25EAE5759342C4BF9B1AED1826
:1015F8001A344D451AD1002008E0012352463946D5
:101608003046C047013003D14FF0FF30BDE8F087C6
:101618000135C2E73020E11881F843005A1C94F8DC
:1016280045102244023382F84310C4E701232246BE
:1016380039463046C0470130E6D009F10109D8E7FC
:101648002DE9F04301F1430C0C46097E85B06E2963
:101658001746064698460C9A00F0B38022D86329AC
:1016680036D00AD8002900F0B980582900F08380C4
:1016780004F1420584F8421032E0642901D0692956
:10168800F6D120681368050603F104012AD51B6802
:101698001160002B03DA2D225B4284F843206F4847
:1016A8000A2239E0732900F09D8008D86F2920D0DC
:1016B8007029DDD1236843F02003236003E07529F6
:1016C80017D07829D4D17823654884F8453055E077
:1016D800136804F14205191D1B68116084F8423033
:1016E80001238CE01B6810F0400F116018BF1BB27B
:1016F800CFE713682568181D1060280601D51B68F8
:1017080002E06806FBD51B886F2914BF0A2208224D
:101718005248002184F843106568002DA560C0F286
:101728009580216821F004012160002B3DD1002D16
:1017380040F08E806546082A0BD12368DB0708D560
:10174800236962689A42DEBF302305F8013C05F13F
:10175800FF35ACEB05032361CDF800803B4603AAB7
:1017680021463046FFF7F6FE01304DD14FF0FF30ED
:1017780005B0BDE8F083394884F84510136821683E
:101788001D1D1B6815600A060BD5CA0744BF41F02A
:10179800200121601BB9226822F020022260102259
:1017A800B7E74D0648BF9BB2EFE76546B3FBF2F1DA
:1017B80002FB1133C35C05F8013D0B460029F5D146
:1017C800B9E713682568181D6169106028061B6849
:1017D80001D5196002E06A06FBD519800023654629
:1017E8002361B9E71368191D11601D68626800213B
:1017F800284600F037F808B1401B60606368236131
:10180800002384F84330A7E723692A46394630463F
:10181800C0470130AAD023689B0713D4E068039B14
:101828009842B8BF1846A3E701234A4639463046CE
:10183800C04701309AD00135E368039A9B1AAB423E
:10184800F2DCEBE7002504F11909F5E7002BACD130
:10185800037804F1420584F842306CE7311D000832
:10186800421D000810B5C9B202449042034601D196
:10187800002303E01C7801308C42F6D1184610BDD5
:10188800884210B501EB020307D8421E99420AD0DC
:1018980011F8014B02F8014FF8E78342F5D9811896
:1018A800D21AD34200D110BD13F8014D01F8014DF1
:1018B800F7E7000038B50546002943D051F8043C45
:1018C8000C1F002BB8BFE41800F0D0F81E4A1368AC
:1018D800104633B9636014602846BDE8384000F00C
:1018E800C6B8A3420BD921686218934201BF1A688F
:1018F8005B685218226063600460EDE713465A681B
:101908000AB1A242FAD919685818A0420BD1206826
:101918000144581882421960DED1106852680144A7
:1019280019605A60D8E702D90C232B60D4E72068E5
:1019380021188A4201BF1168526809182160626043
:101948005C60C9E738BD00BF2001002070B5CD1C20
:1019580025F0030508350C2D38BF0C25002D06464B
:1019680001DBA94203D90C233360002070BD00F0CD
:101978007DF8214A1468214691B9204C23681BB987
:10198800304600F063F820602946304600F05EF8E3
:10199800431C24D10C233046336000F068F8E4E798
:1019A8000B685B1B18D40B2B0FD90B60CC18CD50D0
:1019B800304600F05CF804F10B00231D20F007000E
:1019C800C31AD3D05A42E250D0E74B688C4216BFB4
:1019D800636013600C46EBE70C464968CCE7C41C0F
:1019E80024F00304A04205D0211A304600F02EF856
:1019F8000130CFD02560DBE7200100202401002042
:101A0800F8B5074614460E4621B9BDE8F840114618
:101A1800FFF79CBF22B9FFF74DFF25462846F8BDC2
:101A280000F026F8A0420FD221463846FFF78EFF75
:101A380005460028F2D031462246FFF7BDFB314665
:101A48003846FFF737FFE9E73546E7E738B50023BB
:101A5800054C054608462360FEF78CFC431C02D162
:101A6800236803B12B6038BD2801002070477047F8
:101A780051F8043C181F002BBCBF0B58C018704706
:101A8800537461636B206672616D653A0A000000E9
:101A9800205230203D2020253038580A0000000010
:101AA800205231203D2020253038580A00000000FF
:101AB800205232203D2020253038580A00000000EE
:101AC800205233203D2020253038580A00000000DD
:101AD80020523132203D20253038580A00000000BD
:101AE800204C52203D2020253038580A00000000A4
:101AF800205043203D2020253038580A000000009F
:101B080020505352203D20253038580A000000004C
:101B18004653522F4641523A0A000000204346538A
:101B280052203D2020253038580A000020484653CE
:101B380052203D2020253038580A000020444653C2
:101B480052203D2020253038580A000020414653B5
:101B580052203D2020253038580A0000204D4D469F
:101B68004152203D20253038580A00002042464185
:101B780052203D2020253038580A00004D697363F3
:101B88000A000000204C522F4558435F52455455D7
:101B9800524E3D20253038580A0000005B486172DB
:101BA800644661756C745D0A000000005B427573E1
:101BB8004661756C745D0A005B55736167654661C3
:101BC800756C745D0A000000474554206874747091
:101BD8003A2F2F6B68616C65646D6F6873656E3141
:101BE8003430302D3030312D73697465312E67747F
:101BF800656D7075726C2E636F6D2F6170692F72D1
:101C08006563656976652F0000000000000000002C
:101C180000000000000000000000000000000000BC
:101C28000000000000000000000000003230352EE7
:101C38003134342E3137312E313234000000000077
:101C480047455420687474703A2F2F6B68616C652F
:101C5800646D6F6873656E313430302D3030312DDE
:101C680073697465312E6774656D7075726C2E6357
:101C78006F6D2F6170692F68617355706461746549
:101C88002F6B68616C65642F636433723477636C9F
:101C9800353200000000000042616261313936339C
:101CA80000000000415454454941000025640000EB
:101CB8002F6B68616C65642F636433723477636C6F
:101CC8003532000041542B43495053454E443D00A2
:101CD800000000000000000041542B43574A4150C7
:101CE8005F4355523D000000415445300D0A000045
:101CF80041542B43574D4F44453D310D0A000000D8
:101D080041542B43495053544152543D225443505B
:101D1800222C000038300000232D302B2000686C66
:101D28004C006566674546470030313233343536F6
:101D3800373839414243444546003031323334352F
:0B1D480036373839616263646566005D
:101D540078563412940000200000000000000000B7
:101D640000000000010203040607080900A24A0457
:101D7400000000082800002000000000000000000F
:101D8400000000000000000000000000000000004F
:101D9400000000000000000000000000000000003F
:101DA400000000000000000000000000000000002F
:101DB400000000000000000000000000000000001F
:101DC400000000000000000000000000000000000F
:0C1DD4000000000000000000325476986F
:040000050800010DE1
:00000001FF
